{
  "_format": "hh-sol-artifact-1",
  "contractName": "Auction",
  "sourceName": "contracts/Auction.sol",
  "abi": [
    {
      "inputs": [
        {
          "internalType": "contract IERC721",
          "name": "_nft",
          "type": "address"
        },
        {
          "internalType": "uint256",
          "name": "_nftId",
          "type": "uint256"
        },
        {
          "internalType": "contract IERC20",
          "name": "_token",
          "type": "address"
        }
      ],
      "stateMutability": "nonpayable",
      "type": "constructor"
    },
    {
      "anonymous": false,
      "inputs": [
        {
          "indexed": true,
          "internalType": "uint256",
          "name": "_finalAmount",
          "type": "uint256"
        },
        {
          "indexed": true,
          "internalType": "uint256",
          "name": "_exchangedNftId",
          "type": "uint256"
        }
      ],
      "name": "AuctionFinal",
      "type": "event"
    },
    {
      "anonymous": false,
      "inputs": [
        {
          "indexed": true,
          "internalType": "uint256",
          "name": "_auctionEndTime",
          "type": "uint256"
        }
      ],
      "name": "AuctionStarted",
      "type": "event"
    },
    {
      "anonymous": false,
      "inputs": [
        {
          "indexed": true,
          "internalType": "address",
          "name": "_topBidder",
          "type": "address"
        },
        {
          "indexed": true,
          "internalType": "uint256",
          "name": "_topBidAmount",
          "type": "uint256"
        }
      ],
      "name": "MadeBid",
      "type": "event"
    },
    {
      "anonymous": false,
      "inputs": [
        {
          "indexed": true,
          "internalType": "address",
          "name": "previousOwner",
          "type": "address"
        },
        {
          "indexed": true,
          "internalType": "address",
          "name": "newOwner",
          "type": "address"
        }
      ],
      "name": "OwnershipTransferred",
      "type": "event"
    },
    {
      "inputs": [],
      "name": "auctionEndTime",
      "outputs": [
        {
          "internalType": "uint256",
          "name": "",
          "type": "uint256"
        }
      ],
      "stateMutability": "view",
      "type": "function"
    },
    {
      "inputs": [],
      "name": "auctionFinalized",
      "outputs": [
        {
          "internalType": "bool",
          "name": "",
          "type": "bool"
        }
      ],
      "stateMutability": "view",
      "type": "function"
    },
    {
      "inputs": [],
      "name": "auctionOpened",
      "outputs": [
        {
          "internalType": "bool",
          "name": "",
          "type": "bool"
        }
      ],
      "stateMutability": "view",
      "type": "function"
    },
    {
      "inputs": [
        {
          "internalType": "uint256",
          "name": "_bid",
          "type": "uint256"
        }
      ],
      "name": "bid",
      "outputs": [],
      "stateMutability": "nonpayable",
      "type": "function"
    },
    {
      "inputs": [],
      "name": "finalizeAuction",
      "outputs": [],
      "stateMutability": "nonpayable",
      "type": "function"
    },
    {
      "inputs": [],
      "name": "nft",
      "outputs": [
        {
          "internalType": "contract IERC721",
          "name": "",
          "type": "address"
        }
      ],
      "stateMutability": "view",
      "type": "function"
    },
    {
      "inputs": [],
      "name": "nftId",
      "outputs": [
        {
          "internalType": "uint256",
          "name": "",
          "type": "uint256"
        }
      ],
      "stateMutability": "view",
      "type": "function"
    },
    {
      "inputs": [],
      "name": "owner",
      "outputs": [
        {
          "internalType": "address",
          "name": "",
          "type": "address"
        }
      ],
      "stateMutability": "view",
      "type": "function"
    },
    {
      "inputs": [],
      "name": "renounceOwnership",
      "outputs": [],
      "stateMutability": "nonpayable",
      "type": "function"
    },
    {
      "inputs": [],
      "name": "startAuction",
      "outputs": [],
      "stateMutability": "nonpayable",
      "type": "function"
    },
    {
      "inputs": [],
      "name": "token",
      "outputs": [
        {
          "internalType": "contract IERC20",
          "name": "",
          "type": "address"
        }
      ],
      "stateMutability": "view",
      "type": "function"
    },
    {
      "inputs": [],
      "name": "topBidAmount",
      "outputs": [
        {
          "internalType": "uint256",
          "name": "",
          "type": "uint256"
        }
      ],
      "stateMutability": "view",
      "type": "function"
    },
    {
      "inputs": [],
      "name": "topBidder",
      "outputs": [
        {
          "internalType": "address",
          "name": "",
          "type": "address"
        }
      ],
      "stateMutability": "view",
      "type": "function"
    },
    {
      "inputs": [
        {
          "internalType": "address",
          "name": "newOwner",
          "type": "address"
        }
      ],
      "name": "transferOwnership",
      "outputs": [],
      "stateMutability": "nonpayable",
      "type": "function"
    }
  ],
  "bytecode": "0x6101006040523480156200001257600080fd5b5060405162002023380380620020238339818101604052810190620000389190620002b2565b620000586200004c620000e860201b60201c565b620000f060201b60201c565b8273ffffffffffffffffffffffffffffffffffffffff1660a08173ffffffffffffffffffffffffffffffffffffffff16815250508160c081815250508073ffffffffffffffffffffffffffffffffffffffff1660e08173ffffffffffffffffffffffffffffffffffffffff1681525050610e1042620000d891906200033d565b6080818152505050505062000378565b600033905090565b60008060009054906101000a900473ffffffffffffffffffffffffffffffffffffffff169050816000806101000a81548173ffffffffffffffffffffffffffffffffffffffff021916908373ffffffffffffffffffffffffffffffffffffffff1602179055508173ffffffffffffffffffffffffffffffffffffffff168173ffffffffffffffffffffffffffffffffffffffff167f8be0079c531659141344cd1fd0a4f28419497f9722a3daafe3b4186f6b6457e060405160405180910390a35050565b600080fd5b600073ffffffffffffffffffffffffffffffffffffffff82169050919050565b6000620001e682620001b9565b9050919050565b6000620001fa82620001d9565b9050919050565b6200020c81620001ed565b81146200021857600080fd5b50565b6000815190506200022c8162000201565b92915050565b6000819050919050565b620002478162000232565b81146200025357600080fd5b50565b60008151905062000267816200023c565b92915050565b60006200027a82620001d9565b9050919050565b6200028c816200026d565b81146200029857600080fd5b50565b600081519050620002ac8162000281565b92915050565b600080600060608486031215620002ce57620002cd620001b4565b5b6000620002de868287016200021b565b9350506020620002f18682870162000256565b925050604062000304868287016200029b565b9150509250925092565b7f4e487b7100000000000000000000000000000000000000000000000000000000600052601160045260246000fd5b60006200034a8262000232565b9150620003578362000232565b92508282019050808211156200037257620003716200030e565b5b92915050565b60805160a05160c05160e051611bfa62000429600039600081816103530152818161042f01528181610ad601528181610bd601528181610e6e015261105d01526000818161071901528181610840015281816109c101528181610d2f01528181610f9a015261100b01526000818161066f015281816106dd0152818161080401528181610cf30152610f3a0152600081816102f0015281816106930152818161092f0152610a700152611bfa6000f3fe608060405234801561001057600080fd5b50600436106100ea5760003560e01c8063715018a61161008c578063c6bc518211610066578063c6bc5182146101f1578063f2fde38b1461020f578063f77282ab1461022b578063fc0c546a14610235576100ea565b8063715018a6146101ab5780638da5cb5b146101b5578063ac51c1d6146101d3576100ea565b8063454a2ab3116100c8578063454a2ab31461014957806347ccca02146101655780634b449cba146101835780636b64c769146101a1576100ea565b806301333f06146100ef5780630bd8a1d01461010d5780632b29bd0e1461012b575b600080fd5b6100f7610253565b604051610104919061120a565b60405180910390f35b610115610279565b6040516101229190611240565b60405180910390f35b61013361028c565b6040516101409190611240565b60405180910390f35b610163600480360381019061015e9190611296565b61029f565b005b61016d61066d565b60405161017a9190611322565b60405180910390f35b61018b610691565b604051610198919061134c565b60405180910390f35b6101a96106b5565b005b6101b361097c565b005b6101bd610990565b6040516101ca919061120a565b60405180910390f35b6101db6109b9565b6040516101e8919061134c565b60405180910390f35b6101f96109bf565b604051610206919061134c565b60405180910390f35b61022960048036038101906102249190611393565b6109e3565b005b610233610a66565b005b61023d61105b565b60405161024a91906113e1565b60405180910390f35b600160009054906101000a900473ffffffffffffffffffffffffffffffffffffffff1681565b600060159054906101000a900460ff1681565b600060149054906101000a900460ff1681565b600060149054906101000a900460ff166102ee576040517f08c379a00000000000000000000000000000000000000000000000000000000081526004016102e590611459565b60405180910390fd5b7f00000000000000000000000000000000000000000000000000000000000000004210610350576040517f08c379a0000000000000000000000000000000000000000000000000000000008152600401610347906114c5565b60405180910390fd5b807f000000000000000000000000000000000000000000000000000000000000000073ffffffffffffffffffffffffffffffffffffffff166370a08231336040518263ffffffff1660e01b81526004016103aa919061120a565b602060405180830381865afa1580156103c7573d6000803e3d6000fd5b505050506040513d601f19601f820116820180604052508101906103eb91906114fa565b101561042c576040517f08c379a000000000000000000000000000000000000000000000000000000000815260040161042390611573565b60405180910390fd5b807f000000000000000000000000000000000000000000000000000000000000000073ffffffffffffffffffffffffffffffffffffffff1663dd62ed3e33306040518363ffffffff1660e01b8152600401610488929190611593565b602060405180830381865afa1580156104a5573d6000803e3d6000fd5b505050506040513d601f19601f820116820180604052508101906104c991906114fa565b101561050a576040517f08c379a000000000000000000000000000000000000000000000000000000000815260040161050190611608565b60405180910390fd5b600254811161054e576040517f08c379a000000000000000000000000000000000000000000000000000000000815260040161054590611674565b60405180910390fd5b600160009054906101000a900473ffffffffffffffffffffffffffffffffffffffff1673ffffffffffffffffffffffffffffffffffffffff163373ffffffffffffffffffffffffffffffffffffffff16036105de576040517f08c379a00000000000000000000000000000000000000000000000000000000081526004016105d5906116e0565b60405180910390fd5b33600160006101000a81548173ffffffffffffffffffffffffffffffffffffffff021916908373ffffffffffffffffffffffffffffffffffffffff16021790555080600281905550803373ffffffffffffffffffffffffffffffffffffffff167fcd13e6c971dcc3bae53d222e46a1aa7526fef1f6e5b6ce1caee13d6068e8027a60405160405180910390a350565b7f000000000000000000000000000000000000000000000000000000000000000081565b7f000000000000000000000000000000000000000000000000000000000000000081565b6106bd61107f565b6106c5610990565b73ffffffffffffffffffffffffffffffffffffffff167f000000000000000000000000000000000000000000000000000000000000000073ffffffffffffffffffffffffffffffffffffffff16636352211e7f00000000000000000000000000000000000000000000000000000000000000006040518263ffffffff1660e01b8152600401610754919061134c565b602060405180830381865afa158015610771573d6000803e3d6000fd5b505050506040513d601f19601f820116820180604052508101906107959190611715565b73ffffffffffffffffffffffffffffffffffffffff16146107eb576040517f08c379a00000000000000000000000000000000000000000000000000000000081526004016107e29061178e565b60405180910390fd5b3073ffffffffffffffffffffffffffffffffffffffff167f000000000000000000000000000000000000000000000000000000000000000073ffffffffffffffffffffffffffffffffffffffff1663081812fc7f00000000000000000000000000000000000000000000000000000000000000006040518263ffffffff1660e01b815260040161087b919061134c565b602060405180830381865afa158015610898573d6000803e3d6000fd5b505050506040513d601f19601f820116820180604052508101906108bc9190611715565b73ffffffffffffffffffffffffffffffffffffffff1614610912576040517f08c379a0000000000000000000000000000000000000000000000000000000008152600401610909906117fa565b60405180910390fd5b6001600060146101000a81548160ff0219169083151502179055507f00000000000000000000000000000000000000000000000000000000000000007f1bb96dff6ab5005aff98cdc0cf176bb7d8e0423cb48e02217d35b042cec81e9f60405160405180910390a2565b61098461107f565b61098e60006110fd565b565b60008060009054906101000a900473ffffffffffffffffffffffffffffffffffffffff16905090565b60025481565b7f000000000000000000000000000000000000000000000000000000000000000081565b6109eb61107f565b600073ffffffffffffffffffffffffffffffffffffffff168173ffffffffffffffffffffffffffffffffffffffff1603610a5a576040517f08c379a0000000000000000000000000000000000000000000000000000000008152600401610a519061188c565b60405180910390fd5b610a63816110fd565b50565b610a6e61107f565b7f0000000000000000000000000000000000000000000000000000000000000000421015610ad1576040517f08c379a0000000000000000000000000000000000000000000000000000000008152600401610ac8906118f8565b60405180910390fd5b6002547f000000000000000000000000000000000000000000000000000000000000000073ffffffffffffffffffffffffffffffffffffffff166370a08231600160009054906101000a900473ffffffffffffffffffffffffffffffffffffffff166040518263ffffffff1660e01b8152600401610b4f919061120a565b602060405180830381865afa158015610b6c573d6000803e3d6000fd5b505050506040513d601f19601f82011682018060405250810190610b9091906114fa565b1015610bd1576040517f08c379a0000000000000000000000000000000000000000000000000000000008152600401610bc890611964565b60405180910390fd5b6002547f000000000000000000000000000000000000000000000000000000000000000073ffffffffffffffffffffffffffffffffffffffff1663dd62ed3e600160009054906101000a900473ffffffffffffffffffffffffffffffffffffffff16306040518363ffffffff1660e01b8152600401610c51929190611593565b602060405180830381865afa158015610c6e573d6000803e3d6000fd5b505050506040513d601f19601f82011682018060405250810190610c9291906114fa565b1015610cd3576040517f08c379a0000000000000000000000000000000000000000000000000000000008152600401610cca906119d0565b60405180910390fd5b610cdb610990565b73ffffffffffffffffffffffffffffffffffffffff167f000000000000000000000000000000000000000000000000000000000000000073ffffffffffffffffffffffffffffffffffffffff16636352211e7f00000000000000000000000000000000000000000000000000000000000000006040518263ffffffff1660e01b8152600401610d6a919061134c565b602060405180830381865afa158015610d87573d6000803e3d6000fd5b505050506040513d601f19601f82011682018060405250810190610dab9190611715565b73ffffffffffffffffffffffffffffffffffffffff1614610e01576040517f08c379a0000000000000000000000000000000000000000000000000000000008152600401610df890611a3c565b60405180910390fd5b600060159054906101000a900460ff1615610e51576040517f08c379a0000000000000000000000000000000000000000000000000000000008152600401610e4890611aa8565b60405180910390fd5b6001600060156101000a81548160ff0219169083151502179055507f000000000000000000000000000000000000000000000000000000000000000073ffffffffffffffffffffffffffffffffffffffff166323b872dd600160009054906101000a900473ffffffffffffffffffffffffffffffffffffffff16610ed3610990565b6002546040518463ffffffff1660e01b8152600401610ef493929190611ac8565b6020604051808303816000875af1158015610f13573d6000803e3d6000fd5b505050506040513d601f19601f82011682018060405250810190610f379190611b2b565b507f000000000000000000000000000000000000000000000000000000000000000073ffffffffffffffffffffffffffffffffffffffff166323b872dd33600160009054906101000a900473ffffffffffffffffffffffffffffffffffffffff167f00000000000000000000000000000000000000000000000000000000000000006040518463ffffffff1660e01b8152600401610fd793929190611ac8565b600060405180830381600087803b158015610ff157600080fd5b505af1158015611005573d6000803e3d6000fd5b505050507f00000000000000000000000000000000000000000000000000000000000000006002547f3738468c3d3b820de8989513d1ac54b0ff7ffc7c5c86ad7e7380743c5b8200c160405160405180910390a3565b7f000000000000000000000000000000000000000000000000000000000000000081565b6110876111c1565b73ffffffffffffffffffffffffffffffffffffffff166110a5610990565b73ffffffffffffffffffffffffffffffffffffffff16146110fb576040517f08c379a00000000000000000000000000000000000000000000000000000000081526004016110f290611ba4565b60405180910390fd5b565b60008060009054906101000a900473ffffffffffffffffffffffffffffffffffffffff169050816000806101000a81548173ffffffffffffffffffffffffffffffffffffffff021916908373ffffffffffffffffffffffffffffffffffffffff1602179055508173ffffffffffffffffffffffffffffffffffffffff168173ffffffffffffffffffffffffffffffffffffffff167f8be0079c531659141344cd1fd0a4f28419497f9722a3daafe3b4186f6b6457e060405160405180910390a35050565b600033905090565b600073ffffffffffffffffffffffffffffffffffffffff82169050919050565b60006111f4826111c9565b9050919050565b611204816111e9565b82525050565b600060208201905061121f60008301846111fb565b92915050565b60008115159050919050565b61123a81611225565b82525050565b60006020820190506112556000830184611231565b92915050565b600080fd5b6000819050919050565b61127381611260565b811461127e57600080fd5b50565b6000813590506112908161126a565b92915050565b6000602082840312156112ac576112ab61125b565b5b60006112ba84828501611281565b91505092915050565b6000819050919050565b60006112e86112e36112de846111c9565b6112c3565b6111c9565b9050919050565b60006112fa826112cd565b9050919050565b600061130c826112ef565b9050919050565b61131c81611301565b82525050565b60006020820190506113376000830184611313565b92915050565b61134681611260565b82525050565b6000602082019050611361600083018461133d565b92915050565b611370816111e9565b811461137b57600080fd5b50565b60008135905061138d81611367565b92915050565b6000602082840312156113a9576113a861125b565b5b60006113b78482850161137e565b91505092915050565b60006113cb826112ef565b9050919050565b6113db816113c0565b82525050565b60006020820190506113f660008301846113d2565b92915050565b600082825260208201905092915050565b7f41756374696f6e206e6f74206f70656e00000000000000000000000000000000600082015250565b60006114436010836113fc565b915061144e8261140d565b602082019050919050565b6000602082019050818103600083015261147281611436565b9050919050565b7f41756374696f6e2068617320636c6f7365640000000000000000000000000000600082015250565b60006114af6012836113fc565b91506114ba82611479565b602082019050919050565b600060208201905081810360008301526114de816114a2565b9050919050565b6000815190506114f48161126a565b92915050565b6000602082840312156115105761150f61125b565b5b600061151e848285016114e5565b91505092915050565b7f4e6f7420656e6f7567682066756e647300000000000000000000000000000000600082015250565b600061155d6010836113fc565b915061156882611527565b602082019050919050565b6000602082019050818103600083015261158c81611550565b9050919050565b60006040820190506115a860008301856111fb565b6115b560208301846111fb565b9392505050565b7f436f6e7472616374206e6f7420617070726f7665640000000000000000000000600082015250565b60006115f26015836113fc565b91506115fd826115bc565b602082019050919050565b60006020820190508181036000830152611621816115e5565b9050919050565b7f426964206e6f74206869676820656e6f75676800000000000000000000000000600082015250565b600061165e6013836113fc565b915061166982611628565b602082019050919050565b6000602082019050818103600083015261168d81611651565b9050919050565b7f42696464657220616c7265616479206c656164696e6700000000000000000000600082015250565b60006116ca6016836113fc565b91506116d582611694565b602082019050919050565b600060208201905081810360008301526116f9816116bd565b9050919050565b60008151905061170f81611367565b92915050565b60006020828403121561172b5761172a61125b565b5b600061173984828501611700565b91505092915050565b7f4f776e6572206d757374206f776e204e46540000000000000000000000000000600082015250565b60006117786012836113fc565b915061178382611742565b602082019050919050565b600060208201905081810360008301526117a78161176b565b9050919050565b7f436f6e7472616374206e6565647320617070726f76616c000000000000000000600082015250565b60006117e46017836113fc565b91506117ef826117ae565b602082019050919050565b60006020820190508181036000830152611813816117d7565b9050919050565b7f4f776e61626c653a206e6577206f776e657220697320746865207a65726f206160008201527f6464726573730000000000000000000000000000000000000000000000000000602082015250565b60006118766026836113fc565b91506118818261181a565b604082019050919050565b600060208201905081810360008301526118a581611869565b9050919050565b7f41756374696f6e2074696d6520686173206e6f742072756e206f757400000000600082015250565b60006118e2601c836113fc565b91506118ed826118ac565b602082019050919050565b60006020820190508181036000830152611911816118d5565b9050919050565b7f42696464657220686173206e6f74207468652066756e64730000000000000000600082015250565b600061194e6018836113fc565b915061195982611918565b602082019050919050565b6000602082019050818103600083015261197d81611941565b9050919050565b7f436f6e7472616374206e6f7420617070726f7665642062792062696464657200600082015250565b60006119ba601f836113fc565b91506119c582611984565b602082019050919050565b600060208201905081810360008301526119e9816119ad565b9050919050565b7f4f776e657220646f65736e2774206f776e204e46540000000000000000000000600082015250565b6000611a266015836113fc565b9150611a31826119f0565b602082019050919050565b60006020820190508181036000830152611a5581611a19565b9050919050565b7f41756374696f6e20616c72656164792066696e616c697a656400000000000000600082015250565b6000611a926019836113fc565b9150611a9d82611a5c565b602082019050919050565b60006020820190508181036000830152611ac181611a85565b9050919050565b6000606082019050611add60008301866111fb565b611aea60208301856111fb565b611af7604083018461133d565b949350505050565b611b0881611225565b8114611b1357600080fd5b50565b600081519050611b2581611aff565b92915050565b600060208284031215611b4157611b4061125b565b5b6000611b4f84828501611b16565b91505092915050565b7f4f776e61626c653a2063616c6c6572206973206e6f7420746865206f776e6572600082015250565b6000611b8e6020836113fc565b9150611b9982611b58565b602082019050919050565b60006020820190508181036000830152611bbd81611b81565b905091905056fea2646970667358221220813b75afbe4255ead912674861fb1c2a0a60af8b639ffe9d44b30ef5b057ea0564736f6c63430008110033",
  "linkReferences": {},
  "deployedLinkReferences": {}
}